{
  "contractName": "LoneOfNFT",
  "abi": [
    {
      "inputs": [],
      "stateMutability": "nonpayable",
      "type": "constructor"
    },
    {
      "anonymous": false,
      "inputs": [
        {
          "indexed": false,
          "internalType": "uint256",
          "name": "loneID",
          "type": "uint256"
        },
        {
          "indexed": false,
          "internalType": "enum LoneOfNFT.Status",
          "name": "status",
          "type": "uint8"
        }
      ],
      "name": "DetailofLoneOnCancle",
      "type": "event"
    },
    {
      "anonymous": false,
      "inputs": [
        {
          "indexed": false,
          "internalType": "uint256",
          "name": "loneID",
          "type": "uint256"
        },
        {
          "indexed": false,
          "internalType": "enum LoneOfNFT.Status",
          "name": "status",
          "type": "uint8"
        }
      ],
      "name": "DetailofLoneOnEnd",
      "type": "event"
    },
    {
      "anonymous": false,
      "inputs": [
        {
          "indexed": false,
          "internalType": "uint256",
          "name": "loneID",
          "type": "uint256"
        },
        {
          "indexed": false,
          "internalType": "uint256",
          "name": "endLoneTimePeriod",
          "type": "uint256"
        },
        {
          "indexed": false,
          "internalType": "enum LoneOfNFT.Status",
          "name": "status",
          "type": "uint8"
        }
      ],
      "name": "DetailofLoneOnExtend",
      "type": "event"
    },
    {
      "anonymous": false,
      "inputs": [
        {
          "indexed": false,
          "internalType": "address",
          "name": "from",
          "type": "address"
        },
        {
          "indexed": false,
          "internalType": "uint256",
          "name": "loneID",
          "type": "uint256"
        },
        {
          "indexed": false,
          "internalType": "uint256",
          "name": "loanAmount",
          "type": "uint256"
        },
        {
          "indexed": false,
          "internalType": "uint256",
          "name": "interestAmount",
          "type": "uint256"
        },
        {
          "indexed": false,
          "internalType": "uint256",
          "name": "endLoneTimePeriod",
          "type": "uint256"
        },
        {
          "indexed": false,
          "internalType": "enum LoneOfNFT.Status",
          "name": "status",
          "type": "uint8"
        }
      ],
      "name": "DetailsOfLoanAcceptData",
      "type": "event"
    },
    {
      "anonymous": false,
      "inputs": [
        {
          "indexed": false,
          "internalType": "address",
          "name": "from",
          "type": "address"
        },
        {
          "indexed": false,
          "internalType": "uint256",
          "name": "loneID",
          "type": "uint256"
        },
        {
          "indexed": false,
          "internalType": "uint256",
          "name": "loanAmount",
          "type": "uint256"
        },
        {
          "indexed": false,
          "internalType": "uint256",
          "name": "interestAmount",
          "type": "uint256"
        },
        {
          "indexed": false,
          "internalType": "uint256",
          "name": "totalTimePeriod",
          "type": "uint256"
        },
        {
          "indexed": false,
          "internalType": "uint256",
          "name": "extendTimePeriod",
          "type": "uint256"
        },
        {
          "indexed": false,
          "internalType": "enum LoneOfNFT.Status",
          "name": "status",
          "type": "uint8"
        }
      ],
      "name": "DetailsOfLoanData",
      "type": "event"
    },
    {
      "anonymous": false,
      "inputs": [
        {
          "indexed": true,
          "internalType": "address",
          "name": "previousOwner",
          "type": "address"
        },
        {
          "indexed": true,
          "internalType": "address",
          "name": "newOwner",
          "type": "address"
        }
      ],
      "name": "OwnershipTransferred",
      "type": "event"
    },
    {
      "anonymous": false,
      "inputs": [
        {
          "indexed": false,
          "internalType": "address",
          "name": "account",
          "type": "address"
        }
      ],
      "name": "Paused",
      "type": "event"
    },
    {
      "anonymous": false,
      "inputs": [
        {
          "indexed": false,
          "internalType": "address",
          "name": "account",
          "type": "address"
        }
      ],
      "name": "Unpaused",
      "type": "event"
    },
    {
      "inputs": [],
      "name": "manager",
      "outputs": [
        {
          "internalType": "address",
          "name": "",
          "type": "address"
        }
      ],
      "stateMutability": "view",
      "type": "function",
      "constant": true
    },
    {
      "inputs": [],
      "name": "owner",
      "outputs": [
        {
          "internalType": "address",
          "name": "",
          "type": "address"
        }
      ],
      "stateMutability": "view",
      "type": "function",
      "constant": true
    },
    {
      "inputs": [],
      "name": "paused",
      "outputs": [
        {
          "internalType": "bool",
          "name": "",
          "type": "bool"
        }
      ],
      "stateMutability": "view",
      "type": "function",
      "constant": true
    },
    {
      "inputs": [],
      "name": "renounceOwnership",
      "outputs": [],
      "stateMutability": "nonpayable",
      "type": "function"
    },
    {
      "inputs": [],
      "name": "shrishwalletAddress",
      "outputs": [
        {
          "internalType": "address",
          "name": "",
          "type": "address"
        }
      ],
      "stateMutability": "view",
      "type": "function",
      "constant": true
    },
    {
      "inputs": [
        {
          "internalType": "address",
          "name": "newOwner",
          "type": "address"
        }
      ],
      "name": "transferOwnership",
      "outputs": [],
      "stateMutability": "nonpayable",
      "type": "function"
    },
    {
      "inputs": [
        {
          "internalType": "address",
          "name": "",
          "type": "address"
        },
        {
          "internalType": "address",
          "name": "",
          "type": "address"
        },
        {
          "internalType": "uint256",
          "name": "",
          "type": "uint256"
        },
        {
          "internalType": "bytes",
          "name": "",
          "type": "bytes"
        }
      ],
      "name": "onERC721Received",
      "outputs": [
        {
          "internalType": "bytes4",
          "name": "",
          "type": "bytes4"
        }
      ],
      "stateMutability": "nonpayable",
      "type": "function"
    },
    {
      "inputs": [],
      "name": "pauseLones",
      "outputs": [],
      "stateMutability": "nonpayable",
      "type": "function"
    },
    {
      "inputs": [],
      "name": "unpauseLones",
      "outputs": [],
      "stateMutability": "nonpayable",
      "type": "function"
    },
    {
      "inputs": [
        {
          "internalType": "address",
          "name": "smartContractAddressOfNFT",
          "type": "address"
        },
        {
          "internalType": "uint256",
          "name": "tokenIdNFT",
          "type": "uint256"
        },
        {
          "internalType": "uint256",
          "name": "loanAmount",
          "type": "uint256"
        },
        {
          "internalType": "uint256",
          "name": "interestAmount",
          "type": "uint256"
        },
        {
          "internalType": "uint256",
          "name": "totalTimePeriod",
          "type": "uint256"
        },
        {
          "internalType": "uint256",
          "name": "maxTimePeriod",
          "type": "uint256"
        }
      ],
      "name": "createLoan",
      "outputs": [],
      "stateMutability": "nonpayable",
      "type": "function"
    },
    {
      "inputs": [
        {
          "internalType": "uint256",
          "name": "loneID",
          "type": "uint256"
        }
      ],
      "name": "acceptLoan",
      "outputs": [],
      "stateMutability": "payable",
      "type": "function",
      "payable": true
    },
    {
      "inputs": [
        {
          "internalType": "uint256",
          "name": "loneID",
          "type": "uint256"
        }
      ],
      "name": "LoanExtend",
      "outputs": [],
      "stateMutability": "payable",
      "type": "function",
      "payable": true
    },
    {
      "inputs": [
        {
          "internalType": "uint256",
          "name": "loneID",
          "type": "uint256"
        }
      ],
      "name": "endLone",
      "outputs": [],
      "stateMutability": "payable",
      "type": "function",
      "payable": true
    },
    {
      "inputs": [
        {
          "internalType": "uint256",
          "name": "loneID",
          "type": "uint256"
        }
      ],
      "name": "cancelLone",
      "outputs": [],
      "stateMutability": "nonpayable",
      "type": "function"
    }
  ],
  "bytecode": "0x608060405273f7d3bdf086d66e548c945ca410bb80fc00e49831600460006101000a81548173ffffffffffffffffffffffffffffffffffffffff021916908373ffffffffffffffffffffffffffffffffffffffff1602179055503480156200006657600080fd5b50620000876200007b620000f060201b60201c565b620000f860201b60201c565b60008060146101000a81548160ff02191690831515021790555033600360006101000a81548173ffffffffffffffffffffffffffffffffffffffff021916908373ffffffffffffffffffffffffffffffffffffffff1602179055506000600281905550620001bc565b600033905090565b60008060009054906101000a900473ffffffffffffffffffffffffffffffffffffffff169050816000806101000a81548173ffffffffffffffffffffffffffffffffffffffff021916908373ffffffffffffffffffffffffffffffffffffffff1602179055508173ffffffffffffffffffffffffffffffffffffffff168173ffffffffffffffffffffffffffffffffffffffff167f8be0079c531659141344cd1fd0a4f28419497f9722a3daafe3b4186f6b6457e060405160405180910390a35050565b612e3180620001cc6000396000f3fe6080604052600436106100dd5760003560e01c80638c40e4461161007f578063adfbe22f11610059578063adfbe22f14610267578063c45901a814610283578063f2fde38b1461029a578063ffe3d457146102c3576100dd565b80638c40e446146101e85780638da5cb5b146102135780639c126bef1461023e576100dd565b8063481c6a75116100bb578063481c6a751461015f5780635c975abb1461018a5780636f9ac3cc146101b5578063715018a6146101d1576100dd565b80631079f7af146100e257806310cb4d671461010b578063150b7a0214610122575b600080fd5b3480156100ee57600080fd5b5061010960048036038101906101049190611d55565b6102df565b005b34801561011757600080fd5b50610120610717565b005b34801561012e57600080fd5b5061014960048036038101906101449190611e47565b6107b1565b6040516101569190611f0a565b60405180910390f35b34801561016b57600080fd5b506101746107c6565b6040516101819190611f34565b60405180910390f35b34801561019657600080fd5b5061019f6107ec565b6040516101ac9190611f6a565b60405180910390f35b6101cf60048036038101906101ca9190611f85565b610802565b005b3480156101dd57600080fd5b506101e6610a98565b005b3480156101f457600080fd5b506101fd610b20565b60405161020a9190611f34565b60405180910390f35b34801561021f57600080fd5b50610228610b46565b6040516102359190611f34565b60405180910390f35b34801561024a57600080fd5b5061026560048036038101906102609190611f85565b610b6f565b005b610281600480360381019061027c9190611f85565b610e7f565b005b34801561028f57600080fd5b50610298611351565b005b3480156102a657600080fd5b506102c160048036038101906102bc9190611fb2565b6113eb565b005b6102dd60048036038101906102d89190611f85565b6114e3565b005b6102e76107ec565b15610327576040517f08c379a000000000000000000000000000000000000000000000000000000000815260040161031e9061203c565b60405180910390fd5b6228de8082111561036d576040517f08c379a0000000000000000000000000000000000000000000000000000000008152600401610364906120ce565b60405180910390fd5b620d2f008111156103b3576040517f08c379a00000000000000000000000000000000000000000000000000000000081526004016103aa90612160565b60405180910390fd5b600081116103f6576040517f08c379a00000000000000000000000000000000000000000000000000000000081526004016103ed906121f2565b60405180910390fd5b60008690503073ffffffffffffffffffffffffffffffffffffffff168173ffffffffffffffffffffffffffffffffffffffff1663081812fc886040518263ffffffff1660e01b815260040161044b9190612221565b602060405180830381865afa158015610468573d6000803e3d6000fd5b505050506040513d601f19601f8201168201806040525081019061048c9190612251565b73ffffffffffffffffffffffffffffffffffffffff16146104e2576040517f08c379a00000000000000000000000000000000000000000000000000000000081526004016104d9906122f0565b60405180910390fd5b60006001600060025481526020019081526020016000209050600254816000018190555060008160010160006101000a81548173ffffffffffffffffffffffffffffffffffffffff021916908373ffffffffffffffffffffffffffffffffffffffff160217905550338160020160006101000a81548173ffffffffffffffffffffffffffffffffffffffff021916908373ffffffffffffffffffffffffffffffffffffffff160217905550878160030160006101000a81548173ffffffffffffffffffffffffffffffffffffffff021916908373ffffffffffffffffffffffffffffffffffffffff160217905550868160040181905550858160050181905550848160060181905550838160070181905550828160080181905550600081600a0160006101000a81548160ff0219169083600481111561062557610624612310565b5b02179055507fc7b05c1b72b1bc80828654c1d1dfd4c096948206679e9bd9fc676e853b8631da33600254836005015484600601548560070154866008015487600a0160009054906101000a900460ff166040516106889796959493929190612387565b60405180910390a161069d6002546001611a65565b508173ffffffffffffffffffffffffffffffffffffffff166342842e0e33308a6040518463ffffffff1660e01b81526004016106db939291906123f6565b600060405180830381600087803b1580156106f557600080fd5b505af1158015610709573d6000803e3d6000fd5b505050505050505050505050565b600360009054906101000a900473ffffffffffffffffffffffffffffffffffffffff1673ffffffffffffffffffffffffffffffffffffffff163373ffffffffffffffffffffffffffffffffffffffff16146107a7576040517f08c379a000000000000000000000000000000000000000000000000000000000815260040161079e90612479565b60405180910390fd5b6107af611a7b565b565b600063150b7a0260e01b905095945050505050565b600360009054906101000a900473ffffffffffffffffffffffffffffffffffffffff1681565b60008060149054906101000a900460ff16905090565b61080a6107ec565b1561084a576040517f08c379a00000000000000000000000000000000000000000000000000000000081526004016108419061203c565b60405180910390fd5b6001600481111561085e5761085d612310565b5b60016000838152602001908152602001600020600a0160009054906101000a900460ff16600481111561089457610893612310565b5b146108d4576040517f08c379a00000000000000000000000000000000000000000000000000000000081526004016108cb906124e5565b60405180910390fd5b3373ffffffffffffffffffffffffffffffffffffffff166001600083815260200190815260200160002060020160009054906101000a900473ffffffffffffffffffffffffffffffffffffffff1673ffffffffffffffffffffffffffffffffffffffff1614610978576040517f08c379a000000000000000000000000000000000000000000000000000000000815260040161096f90612551565b60405180910390fd5b60006001600083815260200190815260200160002060080154116109d1576040517f08c379a00000000000000000000000000000000000000000000000000000000081526004016109c8906125e3565b60405180910390fd5b610a0760016000838152602001908152602001600020600901546001600084815260200190815260200160002060070154611a65565b60016000838152602001908152602001600020600901819055507f873449eb55c04a7b3eb2203c6ec7bbd64f869beb4970e60e6615aa08b1aad98e81600160008481526020019081526020016000206009015460016000858152602001908152602001600020600a0160009054906101000a900460ff16604051610a8d93929190612603565b60405180910390a150565b610aa0611b1e565b73ffffffffffffffffffffffffffffffffffffffff16610abe610b46565b73ffffffffffffffffffffffffffffffffffffffff1614610b14576040517f08c379a0000000000000000000000000000000000000000000000000000000008152600401610b0b90612686565b60405180910390fd5b610b1e6000611b26565b565b600460009054906101000a900473ffffffffffffffffffffffffffffffffffffffff1681565b60008060009054906101000a900473ffffffffffffffffffffffffffffffffffffffff16905090565b60006004811115610b8357610b82612310565b5b60016000838152602001908152602001600020600a0160009054906101000a900460ff166004811115610bb957610bb8612310565b5b14610bf9576040517f08c379a0000000000000000000000000000000000000000000000000000000008152600401610bf0906126f2565b60405180910390fd5b6001600082815260200190815260200160002060020160009054906101000a900473ffffffffffffffffffffffffffffffffffffffff1673ffffffffffffffffffffffffffffffffffffffff163373ffffffffffffffffffffffffffffffffffffffff1614610c9d576040517f08c379a0000000000000000000000000000000000000000000000000000000008152600401610c949061275e565b60405180910390fd5b600260016000838152602001908152602001600020600a0160006101000a81548160ff02191690836004811115610cd757610cd6612310565b5b021790555060006001600083815260200190815260200160002060030160009054906101000a900473ffffffffffffffffffffffffffffffffffffffff1690508073ffffffffffffffffffffffffffffffffffffffff1663095ea7b33360016000868152602001908152602001600020600401546040518363ffffffff1660e01b8152600401610d6892919061277e565b600060405180830381600087803b158015610d8257600080fd5b505af1158015610d96573d6000803e3d6000fd5b505050507f1854dcabc2efbbb94b7cc09a70d92669a5c54a2b8fdba088507d03a4203caf8c8260016000858152602001908152602001600020600a0160009054906101000a900460ff16604051610dee9291906127a7565b60405180910390a18073ffffffffffffffffffffffffffffffffffffffff166323b872dd303360016000878152602001908152602001600020600401546040518463ffffffff1660e01b8152600401610e49939291906123f6565b600060405180830381600087803b158015610e6357600080fd5b505af1158015610e77573d6000803e3d6000fd5b505050505050565b610e876107ec565b15610ec7576040517f08c379a0000000000000000000000000000000000000000000000000000000008152600401610ebe9061203c565b60405180910390fd5b60006004811115610edb57610eda612310565b5b60016000838152602001908152602001600020600a0160009054906101000a900460ff166004811115610f1157610f10612310565b5b14610f51576040517f08c379a0000000000000000000000000000000000000000000000000000000008152600401610f489061281c565b60405180910390fd5b3373ffffffffffffffffffffffffffffffffffffffff166001600083815260200190815260200160002060020160009054906101000a900473ffffffffffffffffffffffffffffffffffffffff1673ffffffffffffffffffffffffffffffffffffffff161415610ff6576040517f08c379a0000000000000000000000000000000000000000000000000000000008152600401610fed90612888565b60405180910390fd5b600160008281526020019081526020016000206005015434101561104f576040517f08c379a00000000000000000000000000000000000000000000000000000000081526004016110469061291a565b60405180910390fd5b336001600083815260200190815260200160002060010160006101000a81548173ffffffffffffffffffffffffffffffffffffffff021916908373ffffffffffffffffffffffffffffffffffffffff1602179055506001806000838152602001908152602001600020600a0160006101000a81548160ff021916908360048111156110dd576110dc612310565b5b0217905550611102426001600084815260200190815260200160002060070154611a65565b600160008381526020019081526020016000206009018190555060006001600083815260200190815260200160002060050154905060006111616103e8611153601985611bea90919063ffffffff16565b611c0090919063ffffffff16565b90506000600460009054906101000a900473ffffffffffffffffffffffffffffffffffffffff1690508073ffffffffffffffffffffffffffffffffffffffff166108fc839081150290604051600060405180830381858888f193505050501580156111d0573d6000803e3d6000fd5b507f723839c943a37e05ebac40e7c0db934416e4499206380df12d851cb9082a43bc6001600086815260200190815260200160002060010160009054906101000a900473ffffffffffffffffffffffffffffffffffffffff168560016000888152602001908152602001600020600501546001600089815260200190815260200160002060060154600160008a815260200190815260200160002060090154600160008b8152602001908152602001600020600a0160009054906101000a900460ff166040516112a596959493929190612999565b60405180910390a16001600085815260200190815260200160002060020160009054906101000a900473ffffffffffffffffffffffffffffffffffffffff1673ffffffffffffffffffffffffffffffffffffffff166108fc83600160008881526020019081526020016000206005015461131f9190612a29565b9081150290604051600060405180830381858888f1935050505015801561134a573d6000803e3d6000fd5b5050505050565b600360009054906101000a900473ffffffffffffffffffffffffffffffffffffffff1673ffffffffffffffffffffffffffffffffffffffff163373ffffffffffffffffffffffffffffffffffffffff16146113e1576040517f08c379a00000000000000000000000000000000000000000000000000000000081526004016113d890612479565b60405180910390fd5b6113e9611c16565b565b6113f3611b1e565b73ffffffffffffffffffffffffffffffffffffffff16611411610b46565b73ffffffffffffffffffffffffffffffffffffffff1614611467576040517f08c379a000000000000000000000000000000000000000000000000000000000815260040161145e90612686565b60405180910390fd5b600073ffffffffffffffffffffffffffffffffffffffff168173ffffffffffffffffffffffffffffffffffffffff1614156114d7576040517f08c379a00000000000000000000000000000000000000000000000000000000081526004016114ce90612acf565b60405180910390fd5b6114e081611b26565b50565b600160048111156114f7576114f6612310565b5b60016000838152602001908152602001600020600a0160009054906101000a900460ff16600481111561152d5761152c612310565b5b1461156d576040517f08c379a0000000000000000000000000000000000000000000000000000000008152600401611564906124e5565b60405180910390fd5b6001600082815260200190815260200160002060020160009054906101000a900473ffffffffffffffffffffffffffffffffffffffff1673ffffffffffffffffffffffffffffffffffffffff163373ffffffffffffffffffffffffffffffffffffffff1614611611576040517f08c379a000000000000000000000000000000000000000000000000000000000815260040161160890612b3b565b60405180910390fd5b6001600082815260200190815260200160002060010160009054906101000a900473ffffffffffffffffffffffffffffffffffffffff1673ffffffffffffffffffffffffffffffffffffffff163373ffffffffffffffffffffffffffffffffffffffff16148015611698575060016000828152602001908152602001600020600901544210155b6116d7576040517f08c379a00000000000000000000000000000000000000000000000000000000081526004016116ce90612bcd565b60405180910390fd5b6001600082815260200190815260200160002060020160009054906101000a900473ffffffffffffffffffffffffffffffffffffffff1673ffffffffffffffffffffffffffffffffffffffff163373ffffffffffffffffffffffffffffffffffffffff1614156118825760006001600083815260200190815260200160002060060154600160008481526020019081526020016000206005015461177b9190612bed565b9050803410156117c0576040517f08c379a00000000000000000000000000000000000000000000000000000000081526004016117b790612cb5565b60405180910390fd5b600360016000848152602001908152602001600020600a0160006101000a81548160ff021916908360048111156117fa576117f9612310565b5b02179055506001600083815260200190815260200160002060010160009054906101000a900473ffffffffffffffffffffffffffffffffffffffff1673ffffffffffffffffffffffffffffffffffffffff166108fc829081150290604051600060405180830381858888f1935050505015801561187b573d6000803e3d6000fd5b50506118c2565b600460016000838152602001908152602001600020600a0160006101000a81548160ff021916908360048111156118bc576118bb612310565b5b02179055505b60006001600083815260200190815260200160002060030160009054906101000a900473ffffffffffffffffffffffffffffffffffffffff1690508073ffffffffffffffffffffffffffffffffffffffff1663095ea7b33360016000868152602001908152602001600020600401546040518363ffffffff1660e01b815260040161194e92919061277e565b600060405180830381600087803b15801561196857600080fd5b505af115801561197c573d6000803e3d6000fd5b505050507fa254f0bb81d5c35db420340d89fe7c64673d09218c3068bf1e4427049da47c1d8260016000858152602001908152602001600020600a0160009054906101000a900460ff166040516119d49291906127a7565b60405180910390a18073ffffffffffffffffffffffffffffffffffffffff166323b872dd303360016000878152602001908152602001600020600401546040518463ffffffff1660e01b8152600401611a2f939291906123f6565b600060405180830381600087803b158015611a4957600080fd5b505af1158015611a5d573d6000803e3d6000fd5b505050505050565b60008183611a739190612bed565b905092915050565b611a836107ec565b15611ac3576040517f08c379a0000000000000000000000000000000000000000000000000000000008152600401611aba9061203c565b60405180910390fd5b6001600060146101000a81548160ff0219169083151502179055507f62e78cea01bee320cd4e420270b5ea74000d11b0c9f74754ebdbfc544b05a258611b07611b1e565b604051611b149190611f34565b60405180910390a1565b600033905090565b60008060009054906101000a900473ffffffffffffffffffffffffffffffffffffffff169050816000806101000a81548173ffffffffffffffffffffffffffffffffffffffff021916908373ffffffffffffffffffffffffffffffffffffffff1602179055508173ffffffffffffffffffffffffffffffffffffffff168173ffffffffffffffffffffffffffffffffffffffff167f8be0079c531659141344cd1fd0a4f28419497f9722a3daafe3b4186f6b6457e060405160405180910390a35050565b60008183611bf89190612cd5565b905092915050565b60008183611c0e9190612d5e565b905092915050565b611c1e6107ec565b611c5d576040517f08c379a0000000000000000000000000000000000000000000000000000000008152600401611c5490612ddb565b60405180910390fd5b60008060146101000a81548160ff0219169083151502179055507f5db9ee0a495bf2e6ff9c91a7834c1ba4fdd244a5e8aa4e537bd38aeae4b073aa611ca0611b1e565b604051611cad9190611f34565b60405180910390a1565b600080fd5b600080fd5b600073ffffffffffffffffffffffffffffffffffffffff82169050919050565b6000611cec82611cc1565b9050919050565b611cfc81611ce1565b8114611d0757600080fd5b50565b600081359050611d1981611cf3565b92915050565b6000819050919050565b611d3281611d1f565b8114611d3d57600080fd5b50565b600081359050611d4f81611d29565b92915050565b60008060008060008060c08789031215611d7257611d71611cb7565b5b6000611d8089828a01611d0a565b9650506020611d9189828a01611d40565b9550506040611da289828a01611d40565b9450506060611db389828a01611d40565b9350506080611dc489828a01611d40565b92505060a0611dd589828a01611d40565b9150509295509295509295565b600080fd5b600080fd5b600080fd5b60008083601f840112611e0757611e06611de2565b5b8235905067ffffffffffffffff811115611e2457611e23611de7565b5b602083019150836001820283011115611e4057611e3f611dec565b5b9250929050565b600080600080600060808688031215611e6357611e62611cb7565b5b6000611e7188828901611d0a565b9550506020611e8288828901611d0a565b9450506040611e9388828901611d40565b935050606086013567ffffffffffffffff811115611eb457611eb3611cbc565b5b611ec088828901611df1565b92509250509295509295909350565b60007fffffffff0000000000000000000000000000000000000000000000000000000082169050919050565b611f0481611ecf565b82525050565b6000602082019050611f1f6000830184611efb565b92915050565b611f2e81611ce1565b82525050565b6000602082019050611f496000830184611f25565b92915050565b60008115159050919050565b611f6481611f4f565b82525050565b6000602082019050611f7f6000830184611f5b565b92915050565b600060208284031215611f9b57611f9a611cb7565b5b6000611fa984828501611d40565b91505092915050565b600060208284031215611fc857611fc7611cb7565b5b6000611fd684828501611d0a565b91505092915050565b600082825260208201905092915050565b7f5061757361626c653a2070617573656400000000000000000000000000000000600082015250565b6000612026601083611fdf565b915061203182611ff0565b602082019050919050565b6000602082019050818103600083015261205581612019565b9050919050565b7f546f74616c2074696d6520706572696f642063616e206265206f6e6c7920333160008201527f2064617973000000000000000000000000000000000000000000000000000000602082015250565b60006120b8602583611fdf565b91506120c38261205c565b604082019050919050565b600060208201905081810360008301526120e7816120ab565b9050919050565b7f457874656e642074696d6520706572696f642063616e206265206f6e6c79203160008201527f3020646179730000000000000000000000000000000000000000000000000000602082015250565b600061214a602683611fdf565b9150612155826120ee565b604082019050919050565b600060208201905081810360008301526121798161213d565b9050919050565b7f4d696e696d756d20457874656e642074696d6520706572696f642063616e206260008201527f65206f6e6c792030206461797300000000000000000000000000000000000000602082015250565b60006121dc602d83611fdf565b91506121e782612180565b604082019050919050565b6000602082019050818103600083015261220b816121cf565b9050919050565b61221b81611d1f565b82525050565b60006020820190506122366000830184612212565b92915050565b60008151905061224b81611cf3565b92915050565b60006020828403121561226757612266611cb7565b5b60006122758482850161223c565b91505092915050565b7f546f6b656e204944206f66204e46542068617320746f20626520617070726f7660008201527f6520666972737400000000000000000000000000000000000000000000000000602082015250565b60006122da602783611fdf565b91506122e58261227e565b604082019050919050565b60006020820190508181036000830152612309816122cd565b9050919050565b7f4e487b7100000000000000000000000000000000000000000000000000000000600052602160045260246000fd5b600581106123505761234f612310565b5b50565b60008190506123618261233f565b919050565b600061237182612353565b9050919050565b61238181612366565b82525050565b600060e08201905061239c600083018a611f25565b6123a96020830189612212565b6123b66040830188612212565b6123c36060830187612212565b6123d06080830186612212565b6123dd60a0830185612212565b6123ea60c0830184612378565b98975050505050505050565b600060608201905061240b6000830186611f25565b6124186020830185611f25565b6124256040830184612212565b949350505050565b7f4f6e6c79206d616e616765722063616e2063616c6c20746869732e0000000000600082015250565b6000612463601b83611fdf565b915061246e8261242d565b602082019050919050565b6000602082019050818103600083015261249281612456565b9050919050565b7f537461747573206973206e6f742041637469766520666f72206c6f616e000000600082015250565b60006124cf601d83611fdf565b91506124da82612499565b602082019050919050565b600060208201905081810360008301526124fe816124c2565b9050919050565b7f4f6e6c792074686520626f72726f7765722063616e20457874656e6400000000600082015250565b600061253b601c83611fdf565b915061254682612505565b602082019050919050565b6000602082019050818103600083015261256a8161252e565b9050919050565b7f546865206d6178696d756d206e756d626572206f6620657874656e73696f6e7360008201527f20746f20746865206c6f616e20686173206265656e20726561636865642e0000602082015250565b60006125cd603e83611fdf565b91506125d882612571565b604082019050919050565b600060208201905081810360008301526125fc816125c0565b9050919050565b60006060820190506126186000830186612212565b6126256020830185612212565b6126326040830184612378565b949350505050565b7f4f776e61626c653a2063616c6c6572206973206e6f7420746865206f776e6572600082015250565b6000612670602083611fdf565b915061267b8261263a565b602082019050919050565b6000602082019050818103600083015261269f81612663565b9050919050565b7f537461747573206973206e6f742050656e64696e6720666f72206c6f616e0000600082015250565b60006126dc601e83611fdf565b91506126e7826126a6565b602082019050919050565b6000602082019050818103600083015261270b816126cf565b9050919050565b7f6f6e6c7920626f72726f7765722063616e2063616e636c652074686973000000600082015250565b6000612748601d83611fdf565b915061275382612712565b602082019050919050565b600060208201905081810360008301526127778161273b565b9050919050565b60006040820190506127936000830185611f25565b6127a06020830184612212565b9392505050565b60006040820190506127bc6000830185612212565b6127c96020830184612378565b9392505050565b7f537461747573206973206e6f742070656e64696e6720666f72206c6f616e0000600082015250565b6000612806601e83611fdf565b9150612811826127d0565b602082019050919050565b60006020820190508181036000830152612835816127f9565b9050919050565b7f596f752063616e206e6f742061636365707420796f7572206f776e206c6f616e600082015250565b6000612872602083611fdf565b915061287d8261283c565b602082019050919050565b600060208201905081810360008301526128a181612865565b9050919050565b7f596f7520617265206e6f742073656e64696e6720656e6f75676820416d6f756e60008201527f7400000000000000000000000000000000000000000000000000000000000000602082015250565b6000612904602183611fdf565b915061290f826128a8565b604082019050919050565b60006020820190508181036000830152612933816128f7565b9050919050565b6000819050919050565b600061295f61295a61295584611cc1565b61293a565b611cc1565b9050919050565b600061297182612944565b9050919050565b600061298382612966565b9050919050565b61299381612978565b82525050565b600060c0820190506129ae600083018961298a565b6129bb6020830188612212565b6129c86040830187612212565b6129d56060830186612212565b6129e26080830185612212565b6129ef60a0830184612378565b979650505050505050565b7f4e487b7100000000000000000000000000000000000000000000000000000000600052601160045260246000fd5b6000612a3482611d1f565b9150612a3f83611d1f565b925082821015612a5257612a516129fa565b5b828203905092915050565b7f4f776e61626c653a206e6577206f776e657220697320746865207a65726f206160008201527f6464726573730000000000000000000000000000000000000000000000000000602082015250565b6000612ab9602683611fdf565b9150612ac482612a5d565b604082019050919050565b60006020820190508181036000830152612ae881612aac565b9050919050565b7f6f6e6c7920626f72726f7765722063616e20656e642074686973000000000000600082015250565b6000612b25601a83611fdf565b9150612b3082612aef565b602082019050919050565b60006020820190508181036000830152612b5481612b18565b9050919050565b7f796f752063616e206e6f7420656e6420746865206c6f6e65206265666f72652060008201527f456e642054696d65000000000000000000000000000000000000000000000000602082015250565b6000612bb7602883611fdf565b9150612bc282612b5b565b604082019050919050565b60006020820190508181036000830152612be681612baa565b9050919050565b6000612bf882611d1f565b9150612c0383611d1f565b9250827fffffffffffffffffffffffffffffffffffffffffffffffffffffffffffffffff03821115612c3857612c376129fa565b5b828201905092915050565b7f596f7520617265206e6f742073656e64696e672074686520546f74616c20616d60008201527f6f756e7400000000000000000000000000000000000000000000000000000000602082015250565b6000612c9f602483611fdf565b9150612caa82612c43565b604082019050919050565b60006020820190508181036000830152612cce81612c92565b9050919050565b6000612ce082611d1f565b9150612ceb83611d1f565b9250817fffffffffffffffffffffffffffffffffffffffffffffffffffffffffffffffff0483118215151615612d2457612d236129fa565b5b828202905092915050565b7f4e487b7100000000000000000000000000000000000000000000000000000000600052601260045260246000fd5b6000612d6982611d1f565b9150612d7483611d1f565b925082612d8457612d83612d2f565b5b828204905092915050565b7f5061757361626c653a206e6f7420706175736564000000000000000000000000600082015250565b6000612dc5601483611fdf565b9150612dd082612d8f565b602082019050919050565b60006020820190508181036000830152612df481612db8565b905091905056fea264697066735822122048ee4de0e91a0686e14590d83bc8f0daaf202693c3b070c886a564336c83a1f464736f6c634300080b0033",
  "immutableReferences": {},
  "source": "// SPDX-License-Identifier: MIT\r\npragma solidity >=0.4.22 <0.9.0;\r\n\r\nimport \"@openzeppelin/contracts/token/ERC721/IERC721.sol\";\r\nimport \"@openzeppelin/contracts/security/Pausable.sol\";\r\nimport \"@openzeppelin/contracts/access/Ownable.sol\";\r\nimport {SafeMath} from \"@openzeppelin/contracts/utils/math/SafeMath.sol\";\r\nimport \"@openzeppelin/contracts/token/ERC721/IERC721Receiver.sol\";\r\n\r\n\r\ncontract LoneOfNFT is IERC721Receiver,Ownable,Pausable {\r\n      // Internel Logic to remove abstract error\r\n    function onERC721Received(\r\n        address,\r\n        address,\r\n        uint256,\r\n        bytes calldata\r\n    ) external returns (bytes4) {\r\n        return IERC721Receiver.onERC721Received.selector;\r\n    }\r\n    \r\n    enum Status { PENDING, ACTIVE, CANCELLED, ENDED, DEFAULTED }\r\n\r\n    struct Lone {\r\n        uint loneID;\r\n        address payable lender;\r\n        address payable borrower;\r\n        address smartContractAddressOfNFT;\r\n        uint tokenIdNFT;\r\n        uint loanAmount;\r\n        uint interestAmount;\r\n        uint totalTimePeriod;\r\n        uint maxTimePeriod;\r\n        uint endLoneTimePeriod;\r\n        Status status;\r\n    }\r\n\r\n    using SafeMath for uint;\r\n    mapping(uint => Lone) allLoansDetails;\r\n    uint totalLone;\r\n\r\n    address public manager;\r\n    constructor() {\r\n            manager = msg.sender;\r\n            totalLone = 0;\r\n    }\r\n    modifier onlyManager() { // Modifier\r\n        require(\r\n            msg.sender == manager,\r\n            \"Only manager can call this.\"\r\n        );\r\n        _;\r\n    }\r\n\r\n\r\n    function pauseLones() public onlyManager {\r\n        _pause();\r\n    }\r\n    function unpauseLones() public onlyManager {\r\n        _unpause();\r\n    }\r\n\r\n    event DetailsOfLoanData(address from, uint loneID, uint loanAmount, uint interestAmount, uint totalTimePeriod, uint extendTimePeriod, Status status);\r\n\r\n    function createLoan(address smartContractAddressOfNFT, uint tokenIdNFT, uint loanAmount, uint interestAmount, uint totalTimePeriod, uint maxTimePeriod) public whenNotPaused{\r\n        require(totalTimePeriod <= 31 days, \"Total time period can be only 31 days\");\r\n        require(maxTimePeriod <= 10 days, \"Extend time period can be only 10 days\");\r\n        require(maxTimePeriod > 0 days, \"Minimum Extend time period can be only 0 days\");\r\n\r\n        IERC721 curruntNFTaddress = IERC721(smartContractAddressOfNFT); \r\n        require(curruntNFTaddress.getApproved(tokenIdNFT) == address(this), \"Token ID of NFT has to be approve first\");\r\n        Lone storage loanrequest = allLoansDetails[totalLone];\r\n        loanrequest.loneID = totalLone;\r\n        loanrequest.lender = payable (address(0x0));\r\n        loanrequest.borrower = payable(msg.sender);\r\n        loanrequest.smartContractAddressOfNFT = smartContractAddressOfNFT;\r\n        loanrequest.tokenIdNFT = tokenIdNFT;\r\n        loanrequest.loanAmount = loanAmount;\r\n        loanrequest.interestAmount = interestAmount;\r\n        loanrequest.totalTimePeriod = totalTimePeriod;\r\n        loanrequest.maxTimePeriod = maxTimePeriod;\r\n        loanrequest.status = Status.PENDING;\r\n\r\n        emit DetailsOfLoanData(msg.sender, totalLone, loanrequest.loanAmount, loanrequest.interestAmount, loanrequest.totalTimePeriod,loanrequest.maxTimePeriod, loanrequest.status);\r\n        SafeMath.add(totalLone, 1);\r\n\r\n        curruntNFTaddress.safeTransferFrom(msg.sender, address(this), tokenIdNFT);\r\n    }\r\n\r\n    // modifier validloneID(uint loneID){\r\n    //     require(loneID < totalLone, \"Loan ID is not valid\");\r\n    //     _;\r\n    // }\r\n\r\n    address public shrishwalletAddress = 0xF7D3bdf086d66E548c945CA410BB80Fc00E49831;\r\n\r\n    event DetailsOfLoanAcceptData(address from, uint loneID, uint loanAmount, uint interestAmount, uint endLoneTimePeriod, Status status);\r\n\r\n    function acceptLoan(uint loneID) payable public whenNotPaused {\r\n        require(allLoansDetails[loneID].status == Status.PENDING, \"Status is not pending for loan\");\r\n        require(allLoansDetails[loneID].borrower != msg.sender, \"You can not accept your own loan\");\r\n        require(msg.value >= allLoansDetails[loneID].loanAmount, \"You are not sending enough Amount\");\r\n        allLoansDetails[loneID].lender = payable(msg.sender);\r\n        allLoansDetails[loneID].status = Status.ACTIVE;\r\n        allLoansDetails[loneID].endLoneTimePeriod = SafeMath.add(block.timestamp, allLoansDetails[loneID].totalTimePeriod);\r\n        uint amountOfLone = allLoansDetails[loneID].loanAmount;\r\n        uint share = amountOfLone.mul(25).div(1000);\r\n        address payable shrishAC = payable(shrishwalletAddress);\r\n        shrishAC.transfer(share);\r\n        emit DetailsOfLoanAcceptData(allLoansDetails[loneID].lender, loneID, allLoansDetails[loneID].loanAmount, allLoansDetails[loneID].interestAmount, allLoansDetails[loneID].endLoneTimePeriod, allLoansDetails[loneID].status);\r\n        allLoansDetails[loneID].borrower.transfer(allLoansDetails[loneID].loanAmount - share);\r\n    }\r\n\r\n    \r\n\r\n    event DetailofLoneOnExtend(uint loneID, uint endLoneTimePeriod, Status status);\r\n\r\n    function LoanExtend(uint loneID) payable public whenNotPaused {\r\n        require(allLoansDetails[loneID].status == Status.ACTIVE, \"Status is not Active for loan\");\r\n        require(allLoansDetails[loneID].borrower == msg.sender, \"Only the borrower can Extend\");\r\n        require(allLoansDetails[loneID].maxTimePeriod > 0, \"The maximum number of extensions to the loan has been reached.\");\r\n        allLoansDetails[loneID].endLoneTimePeriod = SafeMath.add(allLoansDetails[loneID].endLoneTimePeriod, allLoansDetails[loneID].totalTimePeriod);\r\n        emit DetailofLoneOnExtend(loneID, allLoansDetails[loneID].endLoneTimePeriod, allLoansDetails[loneID].status);\r\n    }\r\n\r\n    event DetailofLoneOnEnd(uint loneID, Status status);\r\n\r\n    function endLone(uint loneID) payable public {\r\n        require(allLoansDetails[loneID].status == Status.ACTIVE, \"Status is not Active for loan\");\r\n        require(msg.sender == allLoansDetails[loneID].borrower, \"only borrower can end this\");\r\n        require(msg.sender == allLoansDetails[loneID].lender && block.timestamp >= allLoansDetails[loneID].endLoneTimePeriod, \"you can not end the lone before End Time\");\r\n        if(msg.sender == allLoansDetails[loneID].borrower){\r\n            uint abountobereturn = allLoansDetails[loneID].loanAmount + allLoansDetails[loneID].interestAmount;\r\n            require(msg.value >= abountobereturn, \"You are not sending the Total amount\");\r\n            allLoansDetails[loneID].status = Status.ENDED;\r\n            allLoansDetails[loneID].lender.transfer(abountobereturn);\r\n        }\r\n        else {\r\n            allLoansDetails[loneID].status = Status.DEFAULTED;\r\n        }\r\n        IERC721 curruntNFTaddress = IERC721(allLoansDetails[loneID].smartContractAddressOfNFT); \r\n        curruntNFTaddress.approve(msg.sender, allLoansDetails[loneID].tokenIdNFT);\r\n        emit DetailofLoneOnEnd(loneID, allLoansDetails[loneID].status);\r\n        curruntNFTaddress.transferFrom(address(this), msg.sender, allLoansDetails[loneID].tokenIdNFT);\r\n    }\r\n\r\n\r\n    event DetailofLoneOnCancle(uint loneID, Status status);\r\n    function cancelLone(uint loneID) public {\r\n        require(allLoansDetails[loneID].status == Status.PENDING, \"Status is not Pending for loan\");\r\n        require(msg.sender == allLoansDetails[loneID].borrower, \"only borrower can cancle this\");\r\n        allLoansDetails[loneID].status = Status.CANCELLED;\r\n        IERC721 curruntNFTaddress = IERC721(allLoansDetails[loneID].smartContractAddressOfNFT); \r\n        curruntNFTaddress.approve(msg.sender, allLoansDetails[loneID].tokenIdNFT);\r\n        emit DetailofLoneOnCancle(loneID, allLoansDetails[loneID].status);\r\n        curruntNFTaddress.transferFrom(address(this), msg.sender, allLoansDetails[loneID].tokenIdNFT);\r\n\r\n    }\r\n\r\n}",
  "sourcePath": "D:\\blockchain projects\\LoneofNFT\\shrish-workgroup\\contracts\\LoneOfNFT.sol",
  "compiler": {
    "name": "solc",
    "version": "0.8.11+commit.d7f03943.Emscripten.clang"
  },
  "schemaVersion": "3.4.4",
  "updatedAt": "2022-03-14T23:15:49.650Z",
  "networkType": "ethereum",
  "devdoc": {
    "kind": "dev",
    "methods": {
      "owner()": {
        "details": "Returns the address of the current owner."
      },
      "paused()": {
        "details": "Returns true if the contract is paused, and false otherwise."
      },
      "renounceOwnership()": {
        "details": "Leaves the contract without owner. It will not be possible to call `onlyOwner` functions anymore. Can only be called by the current owner. NOTE: Renouncing ownership will leave the contract without an owner, thereby removing any functionality that is only available to the owner."
      },
      "transferOwnership(address)": {
        "details": "Transfers ownership of the contract to a new account (`newOwner`). Can only be called by the current owner."
      }
    },
    "version": 1
  },
  "userdoc": {
    "kind": "user",
    "methods": {},
    "version": 1
  }
}